{
  "address": "0x1A569b3F12d9b47F6f8D374D0768Bb619865caB4",
  "abi": [
    {
      "inputs": [
        {
          "internalType": "address",
          "name": "_owner",
          "type": "address"
        }
      ],
      "stateMutability": "nonpayable",
      "type": "constructor"
    },
    {
      "inputs": [],
      "name": "ERC721EnumerableForbiddenBatchMint",
      "type": "error"
    },
    {
      "inputs": [
        {
          "internalType": "address",
          "name": "sender",
          "type": "address"
        },
        {
          "internalType": "uint256",
          "name": "tokenId",
          "type": "uint256"
        },
        {
          "internalType": "address",
          "name": "owner",
          "type": "address"
        }
      ],
      "name": "ERC721IncorrectOwner",
      "type": "error"
    },
    {
      "inputs": [
        {
          "internalType": "address",
          "name": "operator",
          "type": "address"
        },
        {
          "internalType": "uint256",
          "name": "tokenId",
          "type": "uint256"
        }
      ],
      "name": "ERC721InsufficientApproval",
      "type": "error"
    },
    {
      "inputs": [
        {
          "internalType": "address",
          "name": "approver",
          "type": "address"
        }
      ],
      "name": "ERC721InvalidApprover",
      "type": "error"
    },
    {
      "inputs": [
        {
          "internalType": "address",
          "name": "operator",
          "type": "address"
        }
      ],
      "name": "ERC721InvalidOperator",
      "type": "error"
    },
    {
      "inputs": [
        {
          "internalType": "address",
          "name": "owner",
          "type": "address"
        }
      ],
      "name": "ERC721InvalidOwner",
      "type": "error"
    },
    {
      "inputs": [
        {
          "internalType": "address",
          "name": "receiver",
          "type": "address"
        }
      ],
      "name": "ERC721InvalidReceiver",
      "type": "error"
    },
    {
      "inputs": [
        {
          "internalType": "address",
          "name": "sender",
          "type": "address"
        }
      ],
      "name": "ERC721InvalidSender",
      "type": "error"
    },
    {
      "inputs": [
        {
          "internalType": "uint256",
          "name": "tokenId",
          "type": "uint256"
        }
      ],
      "name": "ERC721NonexistentToken",
      "type": "error"
    },
    {
      "inputs": [
        {
          "internalType": "address",
          "name": "owner",
          "type": "address"
        },
        {
          "internalType": "uint256",
          "name": "index",
          "type": "uint256"
        }
      ],
      "name": "ERC721OutOfBoundsIndex",
      "type": "error"
    },
    {
      "anonymous": false,
      "inputs": [
        {
          "indexed": true,
          "internalType": "address",
          "name": "owner",
          "type": "address"
        },
        {
          "indexed": true,
          "internalType": "address",
          "name": "approved",
          "type": "address"
        },
        {
          "indexed": true,
          "internalType": "uint256",
          "name": "tokenId",
          "type": "uint256"
        }
      ],
      "name": "Approval",
      "type": "event"
    },
    {
      "anonymous": false,
      "inputs": [
        {
          "indexed": true,
          "internalType": "address",
          "name": "owner",
          "type": "address"
        },
        {
          "indexed": true,
          "internalType": "address",
          "name": "operator",
          "type": "address"
        },
        {
          "indexed": false,
          "internalType": "bool",
          "name": "approved",
          "type": "bool"
        }
      ],
      "name": "ApprovalForAll",
      "type": "event"
    },
    {
      "anonymous": false,
      "inputs": [
        {
          "indexed": true,
          "internalType": "address",
          "name": "creator",
          "type": "address"
        },
        {
          "indexed": false,
          "internalType": "uint256",
          "name": "tokenId",
          "type": "uint256"
        },
        {
          "indexed": false,
          "internalType": "string",
          "name": "name",
          "type": "string"
        }
      ],
      "name": "PortfolioMinted",
      "type": "event"
    },
    {
      "anonymous": false,
      "inputs": [
        {
          "indexed": true,
          "internalType": "address",
          "name": "from",
          "type": "address"
        },
        {
          "indexed": true,
          "internalType": "address",
          "name": "to",
          "type": "address"
        },
        {
          "indexed": true,
          "internalType": "uint256",
          "name": "tokenId",
          "type": "uint256"
        }
      ],
      "name": "Transfer",
      "type": "event"
    },
    {
      "inputs": [
        {
          "internalType": "address",
          "name": "to",
          "type": "address"
        },
        {
          "internalType": "uint256",
          "name": "tokenId",
          "type": "uint256"
        }
      ],
      "name": "approve",
      "outputs": [],
      "stateMutability": "nonpayable",
      "type": "function"
    },
    {
      "inputs": [
        {
          "internalType": "address",
          "name": "owner",
          "type": "address"
        }
      ],
      "name": "balanceOf",
      "outputs": [
        {
          "internalType": "uint256",
          "name": "",
          "type": "uint256"
        }
      ],
      "stateMutability": "view",
      "type": "function"
    },
    {
      "inputs": [
        {
          "internalType": "uint256",
          "name": "tokenId",
          "type": "uint256"
        }
      ],
      "name": "getApproved",
      "outputs": [
        {
          "internalType": "address",
          "name": "",
          "type": "address"
        }
      ],
      "stateMutability": "view",
      "type": "function"
    },
    {
      "inputs": [
        {
          "internalType": "uint256",
          "name": "_tokenId",
          "type": "uint256"
        }
      ],
      "name": "getPortfolio",
      "outputs": [
        {
          "components": [
            {
              "internalType": "string",
              "name": "name",
              "type": "string"
            },
            {
              "internalType": "string",
              "name": "email",
              "type": "string"
            },
            {
              "internalType": "string",
              "name": "githubUsername",
              "type": "string"
            },
            {
              "internalType": "string",
              "name": "codeChefUsername",
              "type": "string"
            },
            {
              "internalType": "string",
              "name": "linkedInProfile",
              "type": "string"
            }
          ],
          "internalType": "struct YourContract.Portfolio",
          "name": "",
          "type": "tuple"
        }
      ],
      "stateMutability": "view",
      "type": "function"
    },
    {
      "inputs": [
        {
          "internalType": "address",
          "name": "owner",
          "type": "address"
        },
        {
          "internalType": "address",
          "name": "operator",
          "type": "address"
        }
      ],
      "name": "isApprovedForAll",
      "outputs": [
        {
          "internalType": "bool",
          "name": "",
          "type": "bool"
        }
      ],
      "stateMutability": "view",
      "type": "function"
    },
    {
      "inputs": [
        {
          "internalType": "address",
          "name": "_to",
          "type": "address"
        },
        {
          "internalType": "string",
          "name": "_name",
          "type": "string"
        },
        {
          "internalType": "string",
          "name": "_email",
          "type": "string"
        },
        {
          "internalType": "string",
          "name": "_githubUsername",
          "type": "string"
        },
        {
          "internalType": "string",
          "name": "_codeChefUsername",
          "type": "string"
        },
        {
          "internalType": "string",
          "name": "_linkedInProfile",
          "type": "string"
        }
      ],
      "name": "mintPortfolio",
      "outputs": [
        {
          "internalType": "uint256",
          "name": "",
          "type": "uint256"
        }
      ],
      "stateMutability": "nonpayable",
      "type": "function"
    },
    {
      "inputs": [],
      "name": "name",
      "outputs": [
        {
          "internalType": "string",
          "name": "",
          "type": "string"
        }
      ],
      "stateMutability": "view",
      "type": "function"
    },
    {
      "inputs": [],
      "name": "owner",
      "outputs": [
        {
          "internalType": "address",
          "name": "",
          "type": "address"
        }
      ],
      "stateMutability": "view",
      "type": "function"
    },
    {
      "inputs": [
        {
          "internalType": "uint256",
          "name": "tokenId",
          "type": "uint256"
        }
      ],
      "name": "ownerOf",
      "outputs": [
        {
          "internalType": "address",
          "name": "",
          "type": "address"
        }
      ],
      "stateMutability": "view",
      "type": "function"
    },
    {
      "inputs": [
        {
          "internalType": "address",
          "name": "from",
          "type": "address"
        },
        {
          "internalType": "address",
          "name": "to",
          "type": "address"
        },
        {
          "internalType": "uint256",
          "name": "tokenId",
          "type": "uint256"
        }
      ],
      "name": "safeTransferFrom",
      "outputs": [],
      "stateMutability": "nonpayable",
      "type": "function"
    },
    {
      "inputs": [
        {
          "internalType": "address",
          "name": "from",
          "type": "address"
        },
        {
          "internalType": "address",
          "name": "to",
          "type": "address"
        },
        {
          "internalType": "uint256",
          "name": "tokenId",
          "type": "uint256"
        },
        {
          "internalType": "bytes",
          "name": "data",
          "type": "bytes"
        }
      ],
      "name": "safeTransferFrom",
      "outputs": [],
      "stateMutability": "nonpayable",
      "type": "function"
    },
    {
      "inputs": [
        {
          "internalType": "address",
          "name": "operator",
          "type": "address"
        },
        {
          "internalType": "bool",
          "name": "approved",
          "type": "bool"
        }
      ],
      "name": "setApprovalForAll",
      "outputs": [],
      "stateMutability": "nonpayable",
      "type": "function"
    },
    {
      "inputs": [
        {
          "internalType": "bytes4",
          "name": "interfaceId",
          "type": "bytes4"
        }
      ],
      "name": "supportsInterface",
      "outputs": [
        {
          "internalType": "bool",
          "name": "",
          "type": "bool"
        }
      ],
      "stateMutability": "view",
      "type": "function"
    },
    {
      "inputs": [],
      "name": "symbol",
      "outputs": [
        {
          "internalType": "string",
          "name": "",
          "type": "string"
        }
      ],
      "stateMutability": "view",
      "type": "function"
    },
    {
      "inputs": [
        {
          "internalType": "uint256",
          "name": "index",
          "type": "uint256"
        }
      ],
      "name": "tokenByIndex",
      "outputs": [
        {
          "internalType": "uint256",
          "name": "",
          "type": "uint256"
        }
      ],
      "stateMutability": "view",
      "type": "function"
    },
    {
      "inputs": [
        {
          "internalType": "address",
          "name": "owner",
          "type": "address"
        },
        {
          "internalType": "uint256",
          "name": "index",
          "type": "uint256"
        }
      ],
      "name": "tokenOfOwnerByIndex",
      "outputs": [
        {
          "internalType": "uint256",
          "name": "",
          "type": "uint256"
        }
      ],
      "stateMutability": "view",
      "type": "function"
    },
    {
      "inputs": [
        {
          "internalType": "uint256",
          "name": "tokenId",
          "type": "uint256"
        }
      ],
      "name": "tokenURI",
      "outputs": [
        {
          "internalType": "string",
          "name": "",
          "type": "string"
        }
      ],
      "stateMutability": "view",
      "type": "function"
    },
    {
      "inputs": [],
      "name": "totalPortfolios",
      "outputs": [
        {
          "internalType": "uint256",
          "name": "",
          "type": "uint256"
        }
      ],
      "stateMutability": "view",
      "type": "function"
    },
    {
      "inputs": [],
      "name": "totalSupply",
      "outputs": [
        {
          "internalType": "uint256",
          "name": "",
          "type": "uint256"
        }
      ],
      "stateMutability": "view",
      "type": "function"
    },
    {
      "inputs": [
        {
          "internalType": "address",
          "name": "from",
          "type": "address"
        },
        {
          "internalType": "address",
          "name": "to",
          "type": "address"
        },
        {
          "internalType": "uint256",
          "name": "tokenId",
          "type": "uint256"
        }
      ],
      "name": "transferFrom",
      "outputs": [],
      "stateMutability": "nonpayable",
      "type": "function"
    },
    {
      "inputs": [],
      "name": "withdraw",
      "outputs": [],
      "stateMutability": "nonpayable",
      "type": "function"
    },
    {
      "stateMutability": "payable",
      "type": "receive"
    }
  ],
  "transactionHash": "0xe59a7dcc524abe6b41fb8d05f64e65d4ec9de3864d9717290824fe134bd04ce7",
  "args": [
    "0xFD848A205075Eef89c9dF6aBE1E3585cE5B27B3d"
  ],
  "numDeployments": 1,
  "solcInputHash": "bf492244936252a9c5e500549834bef2",
  "bytecode": "0x60a06040526000600b553480156200001657600080fd5b50604051620020af380380620020af8339810160408190526200003991620000b1565b6040518060400160405280600c81526020016b141bdc9d199bdb1a5bd3919560a21b81525060405180604001604052806005815260200164141193919560da1b81525081600090816200008d919062000188565b5060016200009c828262000188565b5050506001600160a01b031660805262000254565b600060208284031215620000c457600080fd5b81516001600160a01b0381168114620000dc57600080fd5b9392505050565b634e487b7160e01b600052604160045260246000fd5b600181811c908216806200010e57607f821691505b6020821081036200012f57634e487b7160e01b600052602260045260246000fd5b50919050565b601f8211156200018357600081815260208120601f850160051c810160208610156200015e5750805b601f850160051c820191505b818110156200017f578281556001016200016a565b5050505b505050565b81516001600160401b03811115620001a457620001a4620000e3565b620001bc81620001b58454620000f9565b8462000135565b602080601f831160018114620001f45760008415620001db5750858301515b600019600386901b1c1916600185901b1785556200017f565b600085815260208120601f198616915b82811015620002255788860151825594840194600190910190840162000204565b5085821015620002445787850151600019600388901b60f8161c191681555b5050505050600190811b01905550565b608051611e2a620002856000396000818161031e015281816106000152818161066f0152610b8e0152611e2a6000f3fe60806040526004361061012e5760003560e01c80636352211e116100ab578063a22cb4651161006f578063a22cb46514610355578063b110c57614610375578063b88d4fde14610395578063c87b56dd146103b5578063e985e9c5146103d5578063f96fa1d0146103f557600080fd5b80636352211e1461029f57806370a08231146102bf578063794c0594146102df5780638da5cb5b1461030c57806395d89b411461034057600080fd5b806323b872dd116100f257806323b872dd1461020a5780632f745c591461022a5780633ccfd60b1461024a57806342842e0e1461025f5780634f6ccce71461027f57600080fd5b806301ffc9a71461013a57806306fdde031461016f578063081812fc14610191578063095ea7b3146101c957806318160ddd146101eb57600080fd5b3661013557005b600080fd5b34801561014657600080fd5b5061015a610155366004611753565b61040b565b60405190151581526020015b60405180910390f35b34801561017b57600080fd5b50610184610436565b60405161016691906117c0565b34801561019d57600080fd5b506101b16101ac3660046117d3565b6104c8565b6040516001600160a01b039091168152602001610166565b3480156101d557600080fd5b506101e96101e4366004611808565b6104f1565b005b3480156101f757600080fd5b506008545b604051908152602001610166565b34801561021657600080fd5b506101e9610225366004611832565b610500565b34801561023657600080fd5b506101fc610245366004611808565b610590565b34801561025657600080fd5b506101e96105f5565b34801561026b57600080fd5b506101e961027a366004611832565b610712565b34801561028b57600080fd5b506101fc61029a3660046117d3565b610732565b3480156102ab57600080fd5b506101b16102ba3660046117d3565b61078b565b3480156102cb57600080fd5b506101fc6102da36600461186e565b610796565b3480156102eb57600080fd5b506102ff6102fa3660046117d3565b6107de565b6040516101669190611889565b34801561031857600080fd5b506101b17f000000000000000000000000000000000000000000000000000000000000000081565b34801561034c57600080fd5b50610184610b67565b34801561036157600080fd5b506101e9610370366004611924565b610b76565b34801561038157600080fd5b506101fc610390366004611a0c565b610b81565b3480156103a157600080fd5b506101e96103b0366004611aed565b610cf6565b3480156103c157600080fd5b506101846103d03660046117d3565b610d0d565b3480156103e157600080fd5b5061015a6103f0366004611b69565b610d82565b34801561040157600080fd5b506101fc600b5481565b60006001600160e01b0319821663780e9d6360e01b1480610430575061043082610db0565b92915050565b60606000805461044590611b9c565b80601f016020809104026020016040519081016040528092919081815260200182805461047190611b9c565b80156104be5780601f10610493576101008083540402835291602001916104be565b820191906000526020600020905b8154815290600101906020018083116104a157829003601f168201915b5050505050905090565b60006104d382610e00565b506000828152600460205260409020546001600160a01b0316610430565b6104fc828233610e39565b5050565b6001600160a01b03821661052f57604051633250574960e11b8152600060048201526024015b60405180910390fd5b600061053c838333610e46565b9050836001600160a01b0316816001600160a01b03161461058a576040516364283d7b60e01b81526001600160a01b0380861660048301526024820184905282166044820152606401610526565b50505050565b600061059b83610796565b82106105cc5760405163295f44f760e21b81526001600160a01b038416600482015260248101839052604401610526565b506001600160a01b03919091166000908152600660209081526040808320938352929052205490565b336001600160a01b037f0000000000000000000000000000000000000000000000000000000000000000161461065d5760405162461bcd60e51b815260206004820152600d60248201526c2737ba103a34329027bbb732b960991b6044820152606401610526565b60405147906000906001600160a01b037f0000000000000000000000000000000000000000000000000000000000000000169083908381818185875af1925050503d80600081146106ca576040519150601f19603f3d011682016040523d82523d6000602084013e6106cf565b606091505b50509050806104fc5760405162461bcd60e51b815260206004820152600f60248201526e151c985b9cd9995c8819985a5b1959608a1b6044820152606401610526565b61072d83838360405180602001604052806000815250610cf6565b505050565b600061073d60085490565b82106107665760405163295f44f760e21b81526000600482015260248101839052604401610526565b6008828154811061077957610779611bd6565b90600052602060002001549050919050565b600061043082610e00565b60006001600160a01b0382166107c2576040516322718ad960e21b815260006004820152602401610526565b506001600160a01b031660009081526003602052604090205490565b6108106040518060a0016040528060608152602001606081526020016060815260200160608152602001606081525090565b6000821180156108225750600b548211155b61086e5760405162461bcd60e51b815260206004820152601860248201527f506f7274666f6c696f20646f6573206e6f7420657869737400000000000000006044820152606401610526565b6000828152600a602052604090819020815160a0810190925280548290829061089690611b9c565b80601f01602080910402602001604051908101604052809291908181526020018280546108c290611b9c565b801561090f5780601f106108e45761010080835404028352916020019161090f565b820191906000526020600020905b8154815290600101906020018083116108f257829003601f168201915b5050505050815260200160018201805461092890611b9c565b80601f016020809104026020016040519081016040528092919081815260200182805461095490611b9c565b80156109a15780601f10610976576101008083540402835291602001916109a1565b820191906000526020600020905b81548152906001019060200180831161098457829003601f168201915b505050505081526020016002820180546109ba90611b9c565b80601f01602080910402602001604051908101604052809291908181526020018280546109e690611b9c565b8015610a335780601f10610a0857610100808354040283529160200191610a33565b820191906000526020600020905b815481529060010190602001808311610a1657829003601f168201915b50505050508152602001600382018054610a4c90611b9c565b80601f0160208091040260200160405190810160405280929190818152602001828054610a7890611b9c565b8015610ac55780601f10610a9a57610100808354040283529160200191610ac5565b820191906000526020600020905b815481529060010190602001808311610aa857829003601f168201915b50505050508152602001600482018054610ade90611b9c565b80601f0160208091040260200160405190810160405280929190818152602001828054610b0a90611b9c565b8015610b575780601f10610b2c57610100808354040283529160200191610b57565b820191906000526020600020905b815481529060010190602001808311610b3a57829003601f168201915b5050505050815250509050919050565b60606001805461044590611b9c565b6104fc338383610f1b565b6000336001600160a01b037f00000000000000000000000000000000000000000000000000000000000000001614610beb5760405162461bcd60e51b815260206004820152600d60248201526c2737ba103a34329027bbb732b960991b6044820152606401610526565b600b8054906000610bfb83611c02565b9190505550610c0c87600b54610fba565b6040805160a08101825287815260208082018890528183018790526060820186905260808201859052600b546000908152600a9091529190912081518190610c549082611c69565b5060208201516001820190610c699082611c69565b5060408201516002820190610c7e9082611c69565b5060608201516003820190610c939082611c69565b5060808201516004820190610ca89082611c69565b5050600b546040513392507fa5386fecd533129b9bc89c8e11098f0b7c1269dae172184194f5256a118ae48d91610ce0918a90611d29565b60405180910390a250600b549695505050505050565b610d01848484610500565b61058a84848484610fd4565b6060610d1882610e00565b506000610d3060408051602081019091526000815290565b90506000815111610d505760405180602001604052806000815250610d7b565b80610d5a846110fd565b604051602001610d6b929190611d42565b6040516020818303038152906040525b9392505050565b6001600160a01b03918216600090815260056020908152604080832093909416825291909152205460ff1690565b60006001600160e01b031982166380ac58cd60e01b1480610de157506001600160e01b03198216635b5e139f60e01b145b8061043057506301ffc9a760e01b6001600160e01b0319831614610430565b6000818152600260205260408120546001600160a01b03168061043057604051637e27328960e01b815260048101849052602401610526565b61072d8383836001611190565b600080610e54858585611296565b90506001600160a01b038116610eb157610eac84600880546000838152600960205260408120829055600182018355919091527ff3f7a9fe364faab93b216da50a3214154f22a0a2b415b23a84c8169e8b636ee30155565b610ed4565b846001600160a01b0316816001600160a01b031614610ed457610ed4818561138f565b6001600160a01b038516610ef057610eeb84611420565b610f13565b846001600160a01b0316816001600160a01b031614610f1357610f1385856114cf565b949350505050565b6001600160a01b038216610f4d57604051630b61174360e31b81526001600160a01b0383166004820152602401610526565b6001600160a01b03838116600081815260056020908152604080832094871680845294825291829020805460ff191686151590811790915591519182527f17307eab39ab6107e8899845ad3d59bd9653f200f220920489ca2b5937696c31910160405180910390a3505050565b6104fc82826040518060200160405280600081525061151f565b6001600160a01b0383163b1561058a57604051630a85bd0160e11b81526001600160a01b0384169063150b7a0290611016903390889087908790600401611d71565b6020604051808303816000875af1925050508015611051575060408051601f3d908101601f1916820190925261104e91810190611dae565b60015b6110ba573d80801561107f576040519150601f19603f3d011682016040523d82523d6000602084013e611084565b606091505b5080516000036110b257604051633250574960e11b81526001600160a01b0385166004820152602401610526565b805181602001fd5b6001600160e01b03198116630a85bd0160e11b146110f657604051633250574960e11b81526001600160a01b0385166004820152602401610526565b5050505050565b6060600061110a83611536565b600101905060008167ffffffffffffffff81111561112a5761112a611960565b6040519080825280601f01601f191660200182016040528015611154576020820181803683370190505b5090508181016020015b600019016f181899199a1a9b1b9c1cb0b131b232b360811b600a86061a8153600a850494508461115e57509392505050565b80806111a457506001600160a01b03821615155b156112665760006111b484610e00565b90506001600160a01b038316158015906111e05750826001600160a01b0316816001600160a01b031614155b80156111f357506111f18184610d82565b155b1561121c5760405163a9fbf51f60e01b81526001600160a01b0384166004820152602401610526565b81156112645783856001600160a01b0316826001600160a01b03167f8c5be1e5ebec7d5bd14f71427d1e84f3dd0314c0f7b2291e5b200ac8c7c3b92560405160405180910390a45b505b5050600090815260046020526040902080546001600160a01b0319166001600160a01b0392909216919091179055565b6000828152600260205260408120546001600160a01b03908116908316156112c3576112c381848661160e565b6001600160a01b03811615611301576112e0600085600080611190565b6001600160a01b038116600090815260036020526040902080546000190190555b6001600160a01b03851615611330576001600160a01b0385166000908152600360205260409020805460010190555b60008481526002602052604080822080546001600160a01b0319166001600160a01b0389811691821790925591518793918516917fddf252ad1be2c89b69c2b068fc378daa952ba7f163c4a11628f55a4df523b3ef91a4949350505050565b600061139a83610796565b6000838152600760205260409020549091508082146113ed576001600160a01b03841660009081526006602090815260408083208584528252808320548484528184208190558352600790915290208190555b5060009182526007602090815260408084208490556001600160a01b039094168352600681528383209183525290812055565b60085460009061143290600190611dcb565b6000838152600960205260408120546008805493945090928490811061145a5761145a611bd6565b90600052602060002001549050806008838154811061147b5761147b611bd6565b60009182526020808320909101929092558281526009909152604080822084905585825281205560088054806114b3576114b3611dde565b6001900381819060005260206000200160009055905550505050565b600060016114dc84610796565b6114e69190611dcb565b6001600160a01b039093166000908152600660209081526040808320868452825280832085905593825260079052919091209190915550565b6115298383611672565b61072d6000848484610fd4565b60008072184f03e93ff9f4daa797ed6e38ed64bf6a1f0160401b83106115755772184f03e93ff9f4daa797ed6e38ed64bf6a1f0160401b830492506040015b6d04ee2d6d415b85acef810000000083106115a1576d04ee2d6d415b85acef8100000000830492506020015b662386f26fc1000083106115bf57662386f26fc10000830492506010015b6305f5e10083106115d7576305f5e100830492506008015b61271083106115eb57612710830492506004015b606483106115fd576064830492506002015b600a83106104305760010192915050565b6116198383836116d7565b61072d576001600160a01b03831661164757604051637e27328960e01b815260048101829052602401610526565b60405163177e802f60e01b81526001600160a01b038316600482015260248101829052604401610526565b6001600160a01b03821661169c57604051633250574960e11b815260006004820152602401610526565b60006116aa83836000610e46565b90506001600160a01b0381161561072d576040516339e3563760e11b815260006004820152602401610526565b60006001600160a01b03831615801590610f135750826001600160a01b0316846001600160a01b0316148061171157506117118484610d82565b80610f135750506000908152600460205260409020546001600160a01b03908116911614919050565b6001600160e01b03198116811461175057600080fd5b50565b60006020828403121561176557600080fd5b8135610d7b8161173a565b60005b8381101561178b578181015183820152602001611773565b50506000910152565b600081518084526117ac816020860160208601611770565b601f01601f19169290920160200192915050565b602081526000610d7b6020830184611794565b6000602082840312156117e557600080fd5b5035919050565b80356001600160a01b038116811461180357600080fd5b919050565b6000806040838503121561181b57600080fd5b611824836117ec565b946020939093013593505050565b60008060006060848603121561184757600080fd5b611850846117ec565b925061185e602085016117ec565b9150604084013590509250925092565b60006020828403121561188057600080fd5b610d7b826117ec565b602081526000825160a060208401526118a560c0840182611794565b90506020840151601f19808584030160408601526118c38383611794565b925060408601519150808584030160608601526118e08383611794565b925060608601519150808584030160808601526118fd8383611794565b925060808601519150808584030160a08601525061191b8282611794565b95945050505050565b6000806040838503121561193757600080fd5b611940836117ec565b91506020830135801515811461195557600080fd5b809150509250929050565b634e487b7160e01b600052604160045260246000fd5b600067ffffffffffffffff8084111561199157611991611960565b604051601f8501601f19908116603f011681019082821181831017156119b9576119b9611960565b816040528093508581528686860111156119d257600080fd5b858560208301376000602087830101525050509392505050565b600082601f8301126119fd57600080fd5b610d7b83833560208501611976565b60008060008060008060c08789031215611a2557600080fd5b611a2e876117ec565b9550602087013567ffffffffffffffff80821115611a4b57600080fd5b611a578a838b016119ec565b96506040890135915080821115611a6d57600080fd5b611a798a838b016119ec565b95506060890135915080821115611a8f57600080fd5b611a9b8a838b016119ec565b94506080890135915080821115611ab157600080fd5b611abd8a838b016119ec565b935060a0890135915080821115611ad357600080fd5b50611ae089828a016119ec565b9150509295509295509295565b60008060008060808587031215611b0357600080fd5b611b0c856117ec565b9350611b1a602086016117ec565b925060408501359150606085013567ffffffffffffffff811115611b3d57600080fd5b8501601f81018713611b4e57600080fd5b611b5d87823560208401611976565b91505092959194509250565b60008060408385031215611b7c57600080fd5b611b85836117ec565b9150611b93602084016117ec565b90509250929050565b600181811c90821680611bb057607f821691505b602082108103611bd057634e487b7160e01b600052602260045260246000fd5b50919050565b634e487b7160e01b600052603260045260246000fd5b634e487b7160e01b600052601160045260246000fd5b600060018201611c1457611c14611bec565b5060010190565b601f82111561072d57600081815260208120601f850160051c81016020861015611c425750805b601f850160051c820191505b81811015611c6157828155600101611c4e565b505050505050565b815167ffffffffffffffff811115611c8357611c83611960565b611c9781611c918454611b9c565b84611c1b565b602080601f831160018114611ccc5760008415611cb45750858301515b600019600386901b1c1916600185901b178555611c61565b600085815260208120601f198616915b82811015611cfb57888601518255948401946001909101908401611cdc565b5085821015611d195787850151600019600388901b60f8161c191681555b5050505050600190811b01905550565b828152604060208201526000610f136040830184611794565b60008351611d54818460208801611770565b835190830190611d68818360208801611770565b01949350505050565b6001600160a01b0385811682528416602082015260408101839052608060608201819052600090611da490830184611794565b9695505050505050565b600060208284031215611dc057600080fd5b8151610d7b8161173a565b8181038181111561043057610430611bec565b634e487b7160e01b600052603160045260246000fdfea264697066735822122067ec3d7b988e66a2b6fcdb919fd67cd1ae22446b575e16541275a538f85d89bb64736f6c63430008140033",
  "devdoc": {
    "errors": {
      "ERC721EnumerableForbiddenBatchMint()": [
        {
          "details": "Batch mint is not allowed."
        }
      ],
      "ERC721IncorrectOwner(address,uint256,address)": [
        {
          "details": "Indicates an error related to the ownership over a particular token. Used in transfers.",
          "params": {
            "owner": "Address of the current owner of a token.",
            "sender": "Address whose tokens are being transferred.",
            "tokenId": "Identifier number of a token."
          }
        }
      ],
      "ERC721InsufficientApproval(address,uint256)": [
        {
          "details": "Indicates a failure with the `operator`s approval. Used in transfers.",
          "params": {
            "operator": "Address that may be allowed to operate on tokens without being their owner.",
            "tokenId": "Identifier number of a token."
          }
        }
      ],
      "ERC721InvalidApprover(address)": [
        {
          "details": "Indicates a failure with the `approver` of a token to be approved. Used in approvals.",
          "params": {
            "approver": "Address initiating an approval operation."
          }
        }
      ],
      "ERC721InvalidOperator(address)": [
        {
          "details": "Indicates a failure with the `operator` to be approved. Used in approvals.",
          "params": {
            "operator": "Address that may be allowed to operate on tokens without being their owner."
          }
        }
      ],
      "ERC721InvalidOwner(address)": [
        {
          "details": "Indicates that an address can't be an owner. For example, `address(0)` is a forbidden owner in EIP-20. Used in balance queries.",
          "params": {
            "owner": "Address of the current owner of a token."
          }
        }
      ],
      "ERC721InvalidReceiver(address)": [
        {
          "details": "Indicates a failure with the token `receiver`. Used in transfers.",
          "params": {
            "receiver": "Address to which tokens are being transferred."
          }
        }
      ],
      "ERC721InvalidSender(address)": [
        {
          "details": "Indicates a failure with the token `sender`. Used in transfers.",
          "params": {
            "sender": "Address whose tokens are being transferred."
          }
        }
      ],
      "ERC721NonexistentToken(uint256)": [
        {
          "details": "Indicates a `tokenId` whose `owner` is the zero address.",
          "params": {
            "tokenId": "Identifier number of a token."
          }
        }
      ],
      "ERC721OutOfBoundsIndex(address,uint256)": [
        {
          "details": "An `owner`'s token query was out of bounds for `index`. NOTE: The owner being `address(0)` indicates a global out of bounds index."
        }
      ]
    },
    "events": {
      "Approval(address,address,uint256)": {
        "details": "Emitted when `owner` enables `approved` to manage the `tokenId` token."
      },
      "ApprovalForAll(address,address,bool)": {
        "details": "Emitted when `owner` enables or disables (`approved`) `operator` to manage all of its assets."
      },
      "Transfer(address,address,uint256)": {
        "details": "Emitted when `tokenId` token is transferred from `from` to `to`."
      }
    },
    "kind": "dev",
    "methods": {
      "approve(address,uint256)": {
        "details": "See {IERC721-approve}."
      },
      "balanceOf(address)": {
        "details": "See {IERC721-balanceOf}."
      },
      "getApproved(uint256)": {
        "details": "See {IERC721-getApproved}."
      },
      "isApprovedForAll(address,address)": {
        "details": "See {IERC721-isApprovedForAll}."
      },
      "name()": {
        "details": "See {IERC721Metadata-name}."
      },
      "ownerOf(uint256)": {
        "details": "See {IERC721-ownerOf}."
      },
      "safeTransferFrom(address,address,uint256)": {
        "details": "See {IERC721-safeTransferFrom}."
      },
      "safeTransferFrom(address,address,uint256,bytes)": {
        "details": "See {IERC721-safeTransferFrom}."
      },
      "setApprovalForAll(address,bool)": {
        "details": "See {IERC721-setApprovalForAll}."
      },
      "supportsInterface(bytes4)": {
        "details": "See {IERC165-supportsInterface}."
      },
      "symbol()": {
        "details": "See {IERC721Metadata-symbol}."
      },
      "tokenByIndex(uint256)": {
        "details": "See {IERC721Enumerable-tokenByIndex}."
      },
      "tokenOfOwnerByIndex(address,uint256)": {
        "details": "See {IERC721Enumerable-tokenOfOwnerByIndex}."
      },
      "tokenURI(uint256)": {
        "details": "See {IERC721Metadata-tokenURI}."
      },
      "totalSupply()": {
        "details": "See {IERC721Enumerable-totalSupply}."
      },
      "transferFrom(address,address,uint256)": {
        "details": "See {IERC721-transferFrom}."
      }
    },
    "version": 1
  },
  "userdoc": {
    "kind": "user",
    "methods": {},
    "version": 1
  },
  "storageLayout": {
    "storage": [
      {
        "astId": 169,
        "contract": "contracts/YourContract.sol:YourContract",
        "label": "_name",
        "offset": 0,
        "slot": "0",
        "type": "t_string_storage"
      },
      {
        "astId": 171,
        "contract": "contracts/YourContract.sol:YourContract",
        "label": "_symbol",
        "offset": 0,
        "slot": "1",
        "type": "t_string_storage"
      },
      {
        "astId": 175,
        "contract": "contracts/YourContract.sol:YourContract",
        "label": "_owners",
        "offset": 0,
        "slot": "2",
        "type": "t_mapping(t_uint256,t_address)"
      },
      {
        "astId": 179,
        "contract": "contracts/YourContract.sol:YourContract",
        "label": "_balances",
        "offset": 0,
        "slot": "3",
        "type": "t_mapping(t_address,t_uint256)"
      },
      {
        "astId": 183,
        "contract": "contracts/YourContract.sol:YourContract",
        "label": "_tokenApprovals",
        "offset": 0,
        "slot": "4",
        "type": "t_mapping(t_uint256,t_address)"
      },
      {
        "astId": 189,
        "contract": "contracts/YourContract.sol:YourContract",
        "label": "_operatorApprovals",
        "offset": 0,
        "slot": "5",
        "type": "t_mapping(t_address,t_mapping(t_address,t_bool))"
      },
      {
        "astId": 1299,
        "contract": "contracts/YourContract.sol:YourContract",
        "label": "_ownedTokens",
        "offset": 0,
        "slot": "6",
        "type": "t_mapping(t_address,t_mapping(t_uint256,t_uint256))"
      },
      {
        "astId": 1303,
        "contract": "contracts/YourContract.sol:YourContract",
        "label": "_ownedTokensIndex",
        "offset": 0,
        "slot": "7",
        "type": "t_mapping(t_uint256,t_uint256)"
      },
      {
        "astId": 1306,
        "contract": "contracts/YourContract.sol:YourContract",
        "label": "_allTokens",
        "offset": 0,
        "slot": "8",
        "type": "t_array(t_uint256)dyn_storage"
      },
      {
        "astId": 1310,
        "contract": "contracts/YourContract.sol:YourContract",
        "label": "_allTokensIndex",
        "offset": 0,
        "slot": "9",
        "type": "t_mapping(t_uint256,t_uint256)"
      },
      {
        "astId": 3228,
        "contract": "contracts/YourContract.sol:YourContract",
        "label": "portfolios",
        "offset": 0,
        "slot": "10",
        "type": "t_mapping(t_uint256,t_struct(Portfolio)3221_storage)"
      },
      {
        "astId": 3231,
        "contract": "contracts/YourContract.sol:YourContract",
        "label": "totalPortfolios",
        "offset": 0,
        "slot": "11",
        "type": "t_uint256"
      }
    ],
    "types": {
      "t_address": {
        "encoding": "inplace",
        "label": "address",
        "numberOfBytes": "20"
      },
      "t_array(t_uint256)dyn_storage": {
        "base": "t_uint256",
        "encoding": "dynamic_array",
        "label": "uint256[]",
        "numberOfBytes": "32"
      },
      "t_bool": {
        "encoding": "inplace",
        "label": "bool",
        "numberOfBytes": "1"
      },
      "t_mapping(t_address,t_bool)": {
        "encoding": "mapping",
        "key": "t_address",
        "label": "mapping(address => bool)",
        "numberOfBytes": "32",
        "value": "t_bool"
      },
      "t_mapping(t_address,t_mapping(t_address,t_bool))": {
        "encoding": "mapping",
        "key": "t_address",
        "label": "mapping(address => mapping(address => bool))",
        "numberOfBytes": "32",
        "value": "t_mapping(t_address,t_bool)"
      },
      "t_mapping(t_address,t_mapping(t_uint256,t_uint256))": {
        "encoding": "mapping",
        "key": "t_address",
        "label": "mapping(address => mapping(uint256 => uint256))",
        "numberOfBytes": "32",
        "value": "t_mapping(t_uint256,t_uint256)"
      },
      "t_mapping(t_address,t_uint256)": {
        "encoding": "mapping",
        "key": "t_address",
        "label": "mapping(address => uint256)",
        "numberOfBytes": "32",
        "value": "t_uint256"
      },
      "t_mapping(t_uint256,t_address)": {
        "encoding": "mapping",
        "key": "t_uint256",
        "label": "mapping(uint256 => address)",
        "numberOfBytes": "32",
        "value": "t_address"
      },
      "t_mapping(t_uint256,t_struct(Portfolio)3221_storage)": {
        "encoding": "mapping",
        "key": "t_uint256",
        "label": "mapping(uint256 => struct YourContract.Portfolio)",
        "numberOfBytes": "32",
        "value": "t_struct(Portfolio)3221_storage"
      },
      "t_mapping(t_uint256,t_uint256)": {
        "encoding": "mapping",
        "key": "t_uint256",
        "label": "mapping(uint256 => uint256)",
        "numberOfBytes": "32",
        "value": "t_uint256"
      },
      "t_string_storage": {
        "encoding": "bytes",
        "label": "string",
        "numberOfBytes": "32"
      },
      "t_struct(Portfolio)3221_storage": {
        "encoding": "inplace",
        "label": "struct YourContract.Portfolio",
        "members": [
          {
            "astId": 3212,
            "contract": "contracts/YourContract.sol:YourContract",
            "label": "name",
            "offset": 0,
            "slot": "0",
            "type": "t_string_storage"
          },
          {
            "astId": 3214,
            "contract": "contracts/YourContract.sol:YourContract",
            "label": "email",
            "offset": 0,
            "slot": "1",
            "type": "t_string_storage"
          },
          {
            "astId": 3216,
            "contract": "contracts/YourContract.sol:YourContract",
            "label": "githubUsername",
            "offset": 0,
            "slot": "2",
            "type": "t_string_storage"
          },
          {
            "astId": 3218,
            "contract": "contracts/YourContract.sol:YourContract",
            "label": "codeChefUsername",
            "offset": 0,
            "slot": "3",
            "type": "t_string_storage"
          },
          {
            "astId": 3220,
            "contract": "contracts/YourContract.sol:YourContract",
            "label": "linkedInProfile",
            "offset": 0,
            "slot": "4",
            "type": "t_string_storage"
          }
        ],
        "numberOfBytes": "160"
      },
      "t_uint256": {
        "encoding": "inplace",
        "label": "uint256",
        "numberOfBytes": "32"
      }
    }
  }
}